:101F1C0069703A20696E76616C69642076657273BB
:101F2C00696F6E206F7220686561646572206C65E4
:101F3C006E6774682E0069703A20696E76616C6900
:101F4C0064206C656E6774682C2068696768206211
:101F5C007974652E0069703A20696E76616C6964DB
:101F6C00206C656E6774682C206C6F7720627974B6
:101F7C00652E0069703A20667261676D656E74201B
:101F8C0064726F707065642E0069703A20706163C2
:101F9C006B6574206E6F7420666F722075732E00E3
:101FAC0069703A2062616420636865636B73756D58
:101FBC002E0069703A206E656974686572207463CE
:101FCC0070206E6F722069636D702E0069636D7086
:101FDC003A206E6F742069636D70206563686F2E94
:101FEC00007463703A2062616420636865636B738C
:101FFC00756D2E007463703A20666F756E64206E7A
:10200C006F20756E7573656420636F6E6E65637497
:10201C00696F6E732E007463703A20676F74207250
:10202C00657365742C2061626F7274696E672063CE
:0B203C006F6E6E656374696F6E2E009E
:10281100440009C0A8000444001EC0A800014400EF
:0528210022FFFFFF0093
:1025F600E4900068F0900068E0FFC394025018EF82
:1026060025E02402F582E43400F583E4F0A3F0909B
:102616000068E004F080DEE4900068F0900068E076
:10262600FFC394025018EF75F01DA42444F582E40C
:102636003400F583E4F0900068E004F080DE90005A
:08264600007404F0A3E4F0228B
:0E1403009006BA1213A89006BDECF0A3EDF00F
:10141100900000E475F0011212DAC3900000E0942C
:101421007D40067410F0A3E4F0E4900068F09000B1
:1014310068E0FFC39402503CEF75F01DA4242BF922
:10144100740035F0FA7B019006BF1213A8900019C1
:101451001211FD601712289B9006BF12139F900076
:101461000412131B6F7003EE65F060A4900068E036
:1014710004F080BA7B007A0079009006BF1213A8AD
:10148100E4900068F0900068E0FFC39402506CEFB4
:1014910075F01DA4242BF9740035F0FA7B01900638
:1014A100C21213A89000191211FDFF700E9006C20E
:1014B10012139F9006BF1213A88040EF6407703388
:1014C1009006BF12139FE94A601D90006512139F99
:1014D10090001A1211FDFF9006C212139F90001A7C
:1014E1001211FDD39F400C9006C212139F9006BFAC
:1014F1001213A8900068E004F0808A9006BF1213CE
:101501009FE94A7004FBFAF9229006BF12139F90DB
:10151100001974021212A6900026E090000C12121B
:10152100A6900027E090000D1212A6900028E090EE
:10153100000E1212A6900029E090000F1212A69040
:101541000012740575F0A6121372900014740575DB
:10155100F0A6121372900010E475F001121372904C
:10156100001BE41212A690001A74011212A6900038
:101571001874031212A6900016E41212A690001716
:1015810074101212A612289B9006BF12139F90008E
:1015910004EE8FF01213729006BDE0FFA3E09000FD
:1015A10006CF8FF01213729006BA12139F1212F027
:1015B100FFAEF09006BF12139FEE8FF012135390FF
:1015C10006BA12139F90000212131BFFAEF0900691
:0D15D100BF12139F900002EE8FF0121372F4
:0115DE0022EA
:1026E600E4900068F0900068E0FDC394025030ED7D
:1026F60025E02402F582E43400F583E0FAA3E0B590
:102706000715EAB50611ED25E02402F582E434004A
:10271600F583E4F0A3F022900068E004F080C6227E
:10272600E4900068F0900068E0FDC39402502DED3F
:1027360025E02402F582E43400F583E0FAA3E04ABA
:102746007012ED25E02402F582E43400F583EEF004
:0D275600A3EFF022900068E004F080C9229B
:0F264E0090001CE04402F0900649E0FEA3E0FF7C
:10265D0090006512139FE92408F9E43AFAAD07AC2E
:10266D0006120000900018E0FF90006512139F9075
:10267D000008EF1212A6900019E09000091212A6A0
:10268D0090001AE090000A1212A690001BE0900034
:04269D000B0212A674
:1000030090006512139F9006AB1213A87B017A0030
:1000130079A190000D1213A8EF6402600302018B13
:10002300900029E004F07016900028E004F0700EB0
:10003300900027E004F07006900026E004F0E490BE
:100043000649F0A3F09006AB12139F90001912110A
:10005300FDFF64076004EFB4052590001A740112D4
:10006300126190001A1211FD647860030210E69089
:1000730006AB12139F900019E41212A60210E6EFCA
:1000830070030210E69006AB12139F900010121338
:100093001B45F0700302015E90001A74FF12122ACE
:1000A30060030210E690001B1211FDFF6408601349
:1000B3009000191211FDFE64026004EEB4011DEFFD
:1000C300B40319900019E41212A690001C7480F076
:1000D3001221D990009A7414F0020F949006AB1277
:1000E300139F90001B1211FDFFD3940440067E045E
:1000F3007F0480007403A807088002C333D8FC90F0
:10010300001A1212A690001B7401121261900019BA
:100113001211FD540F14700302077A24FE60231496
:100123007003020BE524FE7003020BE524FE70034B
:10013300020BE5240660030210E6E490009AF00245
:100143000780E4900649F0A3F0900069F0A3F090D3
:10015300001C7404F01221D9020DFB9006AB12139C
:100163009F9000191211FD540F640360030210E6FF
:10017300900649F0A3F0900069F0A3F090001C747E
:1001830008F01221D9020D0B900079E06445600C50
:100193007BFF7A1F791C1227C50210E6900649E0FF
:1001A300FF90007BE0FDEF6D7001E4600C7BFF7A54
:1001B3001F79421227C50210E690064AE0FF90001D
:1001C3007CE0FDEF6D7001E4600C7BFF7A1F7961C9
:1001D3001227C50210E690007FE0543F7004A3E0AD
:1001E300600C7BFF7A1F797F1227C50210E690000F
:1001F30009E0FEA3E0FF900089E06E7003A3E06FC7
:10020300600C7BFF7A1F79951227C50210E69000D8
:100213000BE0FEA3E0FF90008BE06E7003A3E06FA2
:10022300600C7BFF7A1F79951227C50210E612280E
:100233007FEFF47002EEF4600C7BFF7A1F79AC124F
:1002430027C50210E6900082E0640670030202F301
:10025300900082E06401600C7BFF7A1F79BE122755
:10026300C50210E690008DE06408600C7BFF7A1FE6
:1002730079D81227C50210E6E490008DF0C39000F0
:1002830090E094FF90008FE094F7400A740875F0B3
:10029300011212DA800B90008F740875F0001212AD
:1002A300DA900089E0FEA3E0FF900016EEF0A3EFE2
:1002B300F0900085E0FDA3E0900089CDF0A3EDF080
:1002C300900085EEF0A3EFF090008BE0FEA3E0FF3B
:1002D300900016EEF0A3EFF0900087E0FDA3E0900E
:1002E300008BCDF0A3EDF0900087EEF0A3EFF022AA
:1002F300121B0CEFF47002EEF4600C7BFF7A1F7993
:10030300ED1227C50210E67B017A00792B9006AB2C
:100313001213A89006AB12139FC3900065E9958250
:10032300EA958350689006AB12139F90001912113F
:10033300FD604E90000412131BFF90008FE065F0E8
:100343007003A3E06F703A90000612131BFF900036
:100353008DE0B5F02CA3E0B507271212F0FF900053
:1003630085E0B5F01CA3E0B5071790000212131B3C
:10037300FF900087E065F07003A3E06F700302074E
:10038300AA9006ACE475F01D1212DA808690009AEA
:10039300E0543F6402704690008FE0FFA3E09000BA
:1003A30016CFF0A3EFF0E4900068F0900068E0FF50
:1003B300C394025028EF25E02402F582E43400F5CB
:1003C30083E0FEA3E0FF900016E06E7003A3E06FEE
:1003D30070030204EB900068E004F080CE90009A72
:1003E300E030E2030210E690009A7414F09006499C
:1003F300E4F0A37428F09000997450F0900094E016
:10040300FF900068F0900098E0900094F0900098BE
:10041300EFF0900093E0FF900068F0900097E09079
:100423000093F0900097EFF0900092E0FF90006847
:10043300F0900096E0900092F0900096EFF090001C
:1004430091E0FF900068F0900095E0900091F090AB
:100453000095EFF0900098E004F07016900097E09C
:1004630004F0700E900096E004F07006900095E0A2
:1004730004F090008DE0FEA3E0FF900016EEF0A3E1
:10048300EFF090008FE0FDA3E090008DCDF0A3EDA1
:10049300F0A3EEF0A3EFF0900089E0FEA3E0FF905D
:1004A3000016EEF0A3EFF0900085E0FDA3E09000CE
:1004B30089CDF0A3EDF0900085EEF0A3EFF090006E
:1004C3008BE0FEA3E0FF900016EEF0A3EFF09000A8
:1004D30087E0FDA3E090008BCDF0A3EDF0900087C3
:1004E300EEF0A3EFF00210787B007A00790090061B
:1004F300AB1213A8E4900068F0900068E0FFC39487
:1005030002400302058AEF75F01DA42444F582E43A
:100513003400F583E07017EF75F01DA4242BF974F4
:100523000035F0FA7B019006AB1213A880599000B6
:1005330068E0FF75F01DA42444F582E43400F583DC
:10054300E0640770399006AB12139FE94A601A9072
:10055300001A1211FDFEEF75F01DA42445F582E487
:100563003400F583E0D39E4015EF75F01DA4242BD2
:10057300F9740035F0FA7B019006AB1213A89000D2
:1005830068E004F00204FC9006AB12139FE94A7082
:100593000C7BFF7A2079001227C50210E69006AB88
:1005A30012139F9000651213A89006AB12139F902D
:1005B300001A74031212A690001874031212A69064
:1005C3000016E41212A690001774041212A69000EB
:1005D3001BE41212A690008FE0FFA3E0900004CF6B
:1005E3008FF012137290008DE0FFA3E0900006CF0E
:1005F3008FF0121372900085E0FFA3E0CF8FF0120B
:100603001353900087E0FEA3E0FF9006AB12139F05
:10061300900002EE8FF012137290001974011212FF
:10062300A6900026E090000C1212A6900027E090FE
:10063300000D1212A6900028E090000E1212A69050
:100643000029E090000F1212A6900010E475F0014B
:10065300121372900094E090000B1212A690009374
:10066300E090000A1212A6900092E0900009121284
:10067300A6900091E09000081212A67F017E00125E
:10068300265D900099E054F0D39450500302077A0A
:10069300E4900068F0900099E0FFC4540F24FBFF3E
:1006A300E434FFFEEF7802C333CE33CED8F9FF90A4
:1006B3000068E0FDC39FEE6480F8748098400302F5
:1006C300077A74A12DF582E43400F583E090002AC3
:1006D300F0700302077A90002AE0FFB4010890004B
:1006E30068E004F080AFEF6402706674A22DF582B7
:1006F300E43400F583E064047057900068E0FD245F
:10070300A3F582E43400F583E0FE74A42DF582E4BE
:100713003400F583E0FDEEEDFF900016EEF0A3EF5D
:10072300F0D394A6EE940540067E057FA68008903C
:100733000016E0FEA3E0FF9006AB12139F90001299
:10074300EE8FF0121372900014EE8FF0121372807A
:1007530026900068E0FF24A2F582E43400F583E0EC
:10076300601574A22FF582E43400F583E0FF900056
:1007730068E02FF002069890009A7410F090009AA7
:10078300E04402F09000A17402F0A37404F0A30407
:10079300F0A374A6F0900649E4F0A3742CF0900043
:1007A300997460F0020FA39006AB12139F9000653B
:1007B3001213A8E490001CF090009AE030E222901B
:1007C30006AB12139F900019E41212A67BFF7A2046
:1007D30079221227C590001C7420F01221D902102F
:1007E300E6900099E0FFC4540FFF25E025E0FF9059
:1007F3000068F0C390064AE09FFF900649E094002A
:10080300CF24ECA3F0EF34FF900649F0D3A3E09498
:1008130000900649E09400404A9006AB12139F9063
:1008230000081211FDFF900091E06F6003020F8E2C
:100833009000091211FDFF900092E06F6003020F18
:100843008E90000A1211FDFF900093E06F60030287
:100853000F8E90000B1211FDFF900094E06F600368
:10086300020F8E90009AE020E4030209A09006ABE9
:1008730012139F90001012131BFDACF04C70030277
:1008830009A0E9240CF9E43AFA120000900018E0F8
:10089300FF900095E06F60030209A0900019E0FF4C
:1008A300900096E06F60030209A090001AE0FF90A9
:1008B3000097E06F60030209A090001BE0FF900027
:1008C30098E06F60030209A0900018E0FF9006AB68
:1008D30012139F90000CEF1212A6900019E09000E3
:1008E3000D1212A690001AE090000E1212A69000AC
:1008F3001BE090000F1212A690001B1211FD600363
:030903000209885E
:100906009006AB12139F90001A1211FDFF9000186B
:100916001211FDC39FFF9006AEF09000161211FD56
:10092600FE131313541FFEC3EF9EFF9006AEF09006
:100936000016121261C3EF6480948050079006AED1
:10094600E0F404F09006AEE0FF9006AB12139F9021
:1009560000171211FDFE1313543FFEC3EF9E9006BF
:10096600AEF09000171212619000161211FDFF13DF
:100976001313541FFF9000171211FD2F9000181229
:0209860012A6B7
:1009880090001C7401F09006AB12139F900018128F
:1009980011FD90001A1212A69006AB12139F900038
:1009A800191211FD540F1213B109CD010A0D020BD2
:1009B8007C030E82040F18050F6C060F8E070E5F5E
:1009C80008000010E690001CE020E0030210E6900A
:1009D800001974031212A690001C7440F0900010C5
:1009E800E4F5F0121372D390064AE0940090064999
:1009F800E09400400312264EE4900069F0A3F01240
:100A080021D9020D0B90001CE020E0030203E090C6
:100A1800009AE0641260030203E0900099E054F049
:100A2800D394505003020B17E4900068F09000999B
:100A3800E0FFC4540F24FBFFE434FFFEEF7802C349
:100A480033CE33CED8F9FF900068E0FDC39FEE6443
:100A580080F87480984003020B1774A12DF582E486
:100A68003400F583E090002AF07003020B17900021
:100A78002AE0FFB40108900068E004F080AFEF645A
:100A880002706674A22DF582E43400F583E06404F4
:100A98007057900068E0FD24A3F582E43400F583E4
:100AA800E0FE74A42DF582E43400F583E0FDEEED5C
:100AB800FF900016EEF0A3EFF0D394A6EE94054055
:100AC800067E057FA68008900016E0FEA3E0FF9052
:100AD80006AB12139F900012EE8FF0121372900063
:100AE80014EE8FF01213728026900068E0FF24A2A3
:100AF800F582E43400F583E0601574A22FF582E4F2
:100B08003400F583E0FF900068E02FF0020A35908A
:100B180006AB12139F90001974031212A69000914D
:100B2800E09000081212A6900092E09000091212BC
:100B3800A6900093E090000A1212A6900094E0900C
:100B4800000B1212A67F017E0012265D90001C7415
:100B580042F09006AB12139F900010E4F5F01213C8
:100B680072E4900649F0A3F0900069F0A3F0122116
:100B7800D9020D0B90009AE030E06B9006AB12138F
:100B88009F90001012131B45F060030210E69006B8
:100B98004AE02401FF900649E03400FE12265D90E9
:100BA800001C7410F0D390064AE09400900649E0C7
:100BB8009400400790001CE04402F01221D99006EE
:100BC800AB12139F900010E475F00112137290009D
:100BD8001974081212A690001BE41212A690009A2B
:100BE8007411F0020F9490009AE030E55A90009F3B
:100BF800E0FFA3E090001DF0E0FFC390064AE09FED
:100C0800900649E094005006A3E090001DF0900083
:100C18001DE0FF7E0012265D90001DE0FFC39006D8
:100C28004AE09FF0900649E09400F090000D1213FE
:100C38009F9000101213A890001DE0FF90000EE492
:100C48008FF01212DA8031E490001DF090009FE0DE
:100C5800FEA3E0FDEEEDFF90000EEE8FF01212DA2B
:100C680090009FE0FEA3E0FDEEEDFFC390064AE092
:100C78009FF0900649E09EF0D390064AE0940090D9
:100C88000649E0940040129006AB12139F90001999
:100C98001211FD20E40312264E90009BE0FEA3E013
:100CA8007C002400FFEC3EFE900016F0A3EFF090CD
:100CB80006AB12139F90001412131BFDACF0D3EF78
:100CC8009DEE9C500A900016E07002A3E070089018
:100CD8000016ECF0A3EDF0900016E0FEA3E0FF9004
:100CE80006AB12139F900012EE8FF0121372900051
:100CF8001CE0540370030210E6E4900069F0A3F0CE
:100D08001221D990001CE030E51DE4900069F0A3A1
:100D1800F09006AB12139F900019E41212A69000EF
:100D28009A7414F0020F9490001CE030E42FE490C1
:100D38000069F0A3F09006AB12139F900010E475C1
:100D4800F00112137290001974041212A690001B7D
:100D5800E41212A690009A7411F0020F94D3900036
:100D68006AE09400900069E09400406B90001CE0F9
:100D780030E00F9006AB12139F900010E4F5F012CC
:100D880013729006AB12139F90001012131B45F0BC
:100D9800702D90001212131BFFAEF0D390006AE082
:100DA8009F900069E09E4005EEF0A3EFF090006987
:100DB800E0FFA3E0900010CF8FF01213728027900D
:100DC80006AB12139F90001012131BFF900069E5E9
:100DD800F0F0A3EFF0800F9006AB12139F90001075
:100DE800E4F5F01213729006AB12139F90001BE407
:100DF8001212A690000612139F90000D1213A8D38A
:100E080090006AE09400900069E09400402D9006FC
:100E1800AB12139F90001012131BFFAEF0D3940077
:100E2800EE94004016EF242890064AF0E43E90061F
:100E380049F090009A7418F0020F9D90001CE02071
:100E4800E1030210E6900649E4F0A37428F090004C
:100E58009A7410F0020F9D90001CE020E00302102D
:100E6800E69006AB12139F900019E41212A69000A8
:100E78001C7410F01221D90210E6D390064AE094AF
:100E880000900649E09400400312265890009AE02A
:100E980030E04890001CE030E0209006AB12139F31
:100EA80090001974071212A690001AE41212A69064
:100EB8000010E4F5F0121372800E9006AB12139F27
:100EC80090001974061212A67F017E0012265D900A
:100ED800001C7410F01221D9020F8E90001CE03013
:100EE800E01A9006AB12139F90001974051212A60F
:100EF800900010E4F5F01213720210E6D390064A3F
:100F0800E09400900649E0940050030210E68076D1
:100F1800D390064AE09400900649E09400400312FA
:100F2800265890009AE030E0279006AB12139F9065
:100F3800001974071212A690001AE41212A67F0173
:100F48007E0012265D90001C7410F01221D98036A4
:100F5800D390064AE09400900649E09400500302BA
:100F680010E6802290001CE020E0030210E69006C4
:100F7800AB12139F90001974071212A690001AE47E
:100F88001212A60210E690009A7410F0900649E436
:100F9800F0A37428F09000997450F09006AB1213E7
:100FA8009F9000081211FD900095F0900009121111
:100FB800FD900096F090000A1211FD900097F090B5
:100FC800000B1211FD900098F090000C1211FD908A
:100FD8000091F090000D1211FD900092F090000E1B
:100FE8001211FD900093F090000F1211FD900094E3
:100FF800F09000827406F090000412131BFF90001A
:101008008DE5F0F0A3EFF090000612131BFF90009F
:101018008FE5F0F0A3EFF0900009E0FFA3E0900067
:1010280085CFF0A3EFF090000BE0FFA3E0900087DE
:10103800CFF0A3EFF01212F0FF900089E5F0F0A3D3
:10104800EFF090000212131BFF90008BE5F0F0A365
:10105800EFF09000191211FD30E40BE490009CF0C1
:1010680090009BF0800A90009B7405F0A374DCF05C
:10107800900649E090007BF090064AE090007CF0F2
:10108800E490009DF0A3F0121B0CEFF4FFEEF49037
:10109800009DF0A3EFF09000797445F0E4A3F09080
:1010A8000080F090007FF090008174FFF0900013B2
:1010B800E475F0011212DA900013E090007DF090D0
:1010C8000014E090007EF0E4900083F0A3F0122872
:1010D8007FEFF4FFEEF4900083F0A3EFF022E490AA
:0510E8000649F0A3F031
:0110ED0022E0
:08289B00900000E0FEA3E0FF45
:0128A3002212
:0E2127009006B31213A89006B6ECF0A3EDF0EC
:10213500E4A3F0A3F0D39006B7E094019006B6E0CF
:10214500940040409006B312139F1212F0FFAEF0B8
:102155009006B8EE8FF01212DAC39006B9E09F90A0
:1021650006B8E09E5007E475F0011212DA9006B445
:10217500E475F0021212DA9006B674FF75F0FE12DD
:1021850012DA80B19006B6E07004A3E06401703BFA
:102195009006B312139F1211E47F00FE1228A3903C
:1021A50006B8EE8FF01212DA9006B312139F1211D1
:1021B500E47F00FE1228A3C39006B9E09F9006B8FD
:1021C500E09E5007E475F0011212DA9006B8E0FEC1
:0321D500A3E0FF85
:0121D80022E4
:0E287F007B017A0079797D147C0012212722DA
:101B0C007B017A00798D7D147C001221279006AF21
:101B1C00EEF0A3EFF090000D12139F90007BE07F8E
:101B2C0000FEA3E07C002400FFEC3ECF24D8FDEFA8
:101B3C0034FFFC1221279006B1EEF0A3EFF09006D3
:101B4C00AFE0FEA3E0FFA3EE8FF01212DAFCD3EFAE
:101B5C0095F0EE9C400A9006B1E475F0011212DA91
:101B6C00900085E0FEA3E0FF9006B1EE8FF012121C
:101B7C00DAFCD3EF95F0EE9C400A9006B1E475F0D8
:101B8C00011212DA900087E0FEA3E0FF9006B1EE9E
:101B9C008FF01212DAFCD3EF95F0EE9C400A90060F
:101BAC00B1E475F0011212DA900089E0FEA3E0FFB7
:101BBC009006B1EE8FF01212DAFCD3EF95F0EE9C9A
:101BCC00400A9006B1E475F0011212DA90008BE035
:101BDC00FEA3E0FF9006B1EE8FF01212DAFCD3EF09
:101BEC0095F0EE9C400A9006B1E475F0011212DA01
:101BFC007F067E001228A39006B1EE8FF01212DA47
:101C0C00ADF0FCC004C0057F067E001228A3D005F1
:101C1C00D004C3ED9FEC9E500A9006B1E475F00120
:101C2C001212DA90007BE07F00FEA3E07C0024001F
:101C3C00FFEC3ECF24ECCF34FFFE1228A39006AF6E
:101C4C00EEF0A3EFF09006AFE0FEA3E0FFA3EE8F63
:101C5C00F01212DAFCD3EF95F0EE9C400A9006B12C
:0F1C6C00E475F0011212DA9006B1E0FEA3E0FF7A
:011C7B002246
:042826004106C8009F
:1026A100D297E4F508F5090509E509700205086402
:1026B100FA450870F2C297E4F508F5090509E5093C
:1026C1007002050864FA450870F290D800E0F50A36
:1026D100F0E4F508F5090509E5097002050864FA51
:0426E100450870F246
:0126E50022D2
:0A28340090C700E09006B1F0E4FF49
:10283E0090C000E0F50853083FEFC4333354C0FF97
:05284E004208E508F05E
:012853002262
:10279B007F0112283E90C1007452F090C200745415
:1027AB00F090C300744CF090C4007419F090C50005
:0A27BB0074BAF090C60074D8F02242
:102854007C007D641212C8E4FDC3ED9FEC9E50071A
:072864000DBD00010C80F224
:01286B00224A
:102287001226A190C0007421F07F0A7E0012285404
:10229700E4FF12283E90CA00E4F090CB00F090CC07
:1022A7000074E0F090CD0074E2F090C100744CF03F
:1022B70090C2007480F090C300744CF090C4007416
:1022C70040F090C70074FFF090CF00E4F090CE008C
:1022D70074C8F07F0112283E90C700744DF090C873
:1022E700007441F090C900E4F090CA007480F09047
:1022F700CB00E4F090CC00F090CD00F090CE00F051
:1023070090CF00F012279BE4FF12283E90CC007478
:10231700CCF090CD0074E0F090C0007422F090C72C
:052327000074FFF0222C
:0E2047009006AB1213A89006AEECF0A3EDF0DD
:10205500E4FF12283EC39006AFE0943C9006AEE044
:1020650094005006E4F0A3743CF09006C8E07004B8
:102075007F0180027F009006C8EFF0600890C900DC
:102085007440F0800690C9007446F090C800E4F0F2
:102095009006AEE090CB00F09006AFE090CA00F05D
:1020A50090C0007412F0E4FDFCD39006AFE09D9063
:1020B50006AEE09C40189006AB12139F8D828C8370
:1020C5001211FD90D000F00DBD00010C80DB9006D3
:1020D500C8E0600890C4007440F0800690C40074A5
:1020E50046F09006AEE090C600F09006AFE090C5D1
:1020F50000F090C000741EF0E4FFE4FCFD90C00009
:10210500E030E20B0DBD00010CBC03F1BDE8EE9023
:10211500C400E020E00B90C000741EF00FEFB40681
:01212500D9E0
:012126002296
:0617BB009006AB1213A81A
:1017C100E4FF12283E90C70074FFF090C300E09040
:1017D10006B0F07F0112283E1228349006B1E0FDD8
:1017E1007003FEFF229006B0E0D3947F4003744C57
:1017F100F09006B0E06D7003021966E4FF12283E16
:101801009006B0E090C900F090C800E4F090CB00E1
:10181100F090CA007412F090C000740AF0E4FF90D6
:10182100D000E0FE9006AB12139F8F82758300EE0D
:101831001212A60FEFB412E79006AB12139F90009D
:10184100031211FDFE9000021211FD7C0024009094
:1018510006AFF0EC3E9006AEF074FF75F0FC12128C
:10186100DA1211E430E0239006AB12139F900001CD
:101871001211FDFFD3947F5011EFC3944C400B9094
:1018810000031211FDD3940640267F0112283E1257
:1018910028349006B1E0149006B0F0C3944C500384
:1018A100747FF09006B0E090C300F07E007F0022CC
:1018B1009000101211FDFE9000111211FD7C002408
:1018C10000FFEC3EFEEF7003EE6408600AEF640671
:1018D1007003EE640870709006B0E090C900F0905B
:1018E100C8007404F09006AEE090CB00F09006AF13
:1018F100E090CA00F090C000740AF0E4FFFED390BB
:1019010006AFE09F9006AEE09E401A90D000E0FD49
:101911009006AB12139F8F828E83ED1212A60FBF1A
:1019210000010E80D99006B1E0149006B0F0C39486
:101931004C5003747FF09006B0E090C300F0900625
:10194100AEE0FEA3E0FF229006B1E0149006B0F0F5
:10195100C3944C5003747FF09006B0E090C300F044
:091961007E007F00227E007F0061
:01196A00225A
:0E288D0057656C636F6D65210A006F6B0A0062
:1021D90090006512139FE9241CF9E43AFA9006AFBE
:1021E9001213A890001CE030E6209006AF12139F4E
:1021F900E41212947BFF7A28798D9000061213A8B5
:10220900900069E4F0A37409F02290001CE030E02A
:102219000F9006AF12139F1211E470040412129466
:1022290090001CE030E1157BFF7A28799790000631
:102239001213A8900069E4F0A37403F090001CE065
:1022490030E23A9006AF12139F1211E41460190498
:10225900702B7BFF7A28798D9000061213A89000C5
:1022690069E4F0A37409F0227BFF7A28799790003A
:0D227900061213A8900069E4F0A37403F0AE
:012286002235
:10244100900000E020E006E04401F080F3900004F9
:10245100E4F0900008741AF090001F74C8F0900026
:10246100067413F0A374A7F0900685E0900010F0B5
:10247100900686E0900011F0900687E0900012F03F
:10248100900688E0900013F0900689E0900014F027
:1024910090068AE0900015F090068BE0900016F00F
:1024A10090068CE0900017F09000047401F0900009
:0E24B100017404F0900000E4F0E020E0F72257
:1024BF00900002E030E2F990069AE0900010F09060
:1024CF00069BE0900011F090069CE0900012F090B7
:1024DF00069DE0900013F090069EE0900014F0909F
:1024EF00069FE0900015F09006A0E0900016F09087
:1024FF0006A1E0900017F09006A2E0900018F0906F
:10250F0006A3E0900019F09006A4E090001AF09056
:10251F0006A5E090001BF09006A6E090001CF0903E
:06252F0000017401F0221E
:1023B800C0D075D000900002E030E072900010E0CC
:1023C80090068DF0900011E090068EF0900012E0DB
:1023D80090068FF0900013E0900690F0900014E0C3
:1023E800900691F0900015E0900692F0900016E0AB
:1023F800900693F0900017E0900694F0900018E093
:10240800900695F0900019E0900696F090001AE07A
:10241800900697F090001BE0900698F090001CE062
:10242800900699F09000017404F07F0080089000F5
:0924380001740CF07F01D0D022E8
:1027ED003830313920496E6974696E670A00554970
:1027FD005020496E6974696E670A0052756E6E6974
:04280D006E670A00E8
:101C7C00E49006A7F0A3F09006A7E475F001121209
:101C8C00DA9006A7E0B427EFA3E0B410EAE4F5A8D5
:101C9C00D2BAD28B12286CB290B2917BFF7A277990
:101CAC00ED1227C5122287B2917BFF7A2779FB129E
:101CBC0027C51225F6B2907BFF7A2879081227C522
:101CCC00D2AFD2A8D2AA7F297E09122726B2917B45
:101CDC00017A00796B1217BB900649EEF0A3EFF076
:101CEC00900649E07002A3E070619006A7F0A3F0A3
:101CFC009006A7E0FEA3E0FFC39402EE940050CD43
:101D0C007C007D1D1212C8742B2FF974003EFA7BD7
:101D1C00019000651213A87F02120003D390064AAB
:101D2C00E09400900649E0940040141215DF7B010A
:101D3C007A00796B900649E0FCA3E0FD12204790F5
:101D4C0006A7E475F0011212DA80A57F007E081256
:101D5C0028A3900077E0B50636A3E0B5073112252D
:101D6C00357F01120003D390064AE0940090064997
:101D7C00E094005003021CD91215DF7B017A007924
:101D8C006B900649E0FCA3E0FD122047021CD97FB2
:101D9C00067E081228A3900077E06E7003A3E06F14
:101DAC006003021CD9121DD7D390064AE094009010
:101DBC000649E094005003021CD97B017A00796B30
:0B1DCC00E0FCA3E0FD122047021CD940
:09282A0046064C52544C19BAD870
:10276300E490067FF090067FE0FFC3940450287C3A
:10277300007D04C004C0057D00EF75F00BA4245256
:10278300F9740635F0FA7B01D007D0061213D790FF
:08279300067FE004F080CE2275
:10259800900680E004F0E490067FF090067FE0FF6C
:1025A800C394045048EF75F00BA42452F97406350F
:1025B800F0FA7B0190000212131BFFAEF01212F02A
:1025C800FDE5F04EFEED4F4E601B90000A1211FD26
:1025D800FF900680E0C39FC3947840097E007F0483
:0D25E8007D001213D790067FE004F080AE56
:0125F50022C3
:06196B009006AB1213A868
:10197100E490067FF090067FE0FFC39404400302E9
:101981001A1EEF75F00BA42452F9740635F0FA7B98
:10199100019006B11213A81212F0FFAEF04E60745E
:1019A1009006B112139F90000212131B45F0606460
:1019B1009006AB12139F1212F06F7003E5F06E7078
:1019C100539006B112139F90000212131BFFAEF049
:1019D1009006AB12139F90000212131BB50735E559
:1019E100F0B506309006B112139FE92404F9E43AE8
:1019F100A801FCAD039006AE12139F7E007F061274
:101A010011BE900680E0FF9006B112139F90000A6C
:101A1100EF0212A690067FE004F0021976E4900628
:101A21007FF090067FE0FFC394045034EF75F00B14
:101A3100A42452F9740635F0FA7B019006B1121311
:101A4100A81212F045F070109006B112139F900089
:101A51000212131B45F0600890067FE004F080C27B
:101A610090067FE06404705990064BF090067EF07A
:101A7100A3F090067FE0FFC39404503FEF75F00B95
:101A8100A42452F9740635F0FA7B019006B11213C1
:101A9100A890000A1211FDFF900680E0C39FFF90FD
:101AA100064BE0FEEFD39E400AEFF090067FE090F8
:101AB100067EF090067FE004F080B790067EE0A3FA
:101AC100F09006B112139FA801AC02AD039006ABD2
:101AD10012139F7E007F041211BE9006B112139F54
:101AE100E92404F9E43AA801FCAD039006AE12130F
:101AF1009F7E007F061211BE900680E0FF9006B126
:0A1B010012139F90000AEF1212A6C3
:011B0B0022B7
:1025350090064974FF75F0F21212DA900022E0FE5F
:10254500A3E0FF900009E05EFCA3E05FFD9000853D
:10255500E05EFEA3E05FB50539EEB50435900024D5
:10256500E0FEA3E0FF90000BE05EFCA3E05FFD90C2
:102575000087E05EFEA3E05FB50517EEB504137BAB
:10258500017A0079719006AE1213A87A0079851246
:03259500196B229D
:101DD700C390064AE0942A900649E094005005E42F
:101DE700F0A3F022E4900649F0A3F090007FE0FE14
:101DF700A3E0FFEE6003021F1BEF24FE7003021E29
:101E0700E0046003021F1B900009E0FEA3E0FF90BF
:101E17000091E06E7003A3E06F6003021F1B900048
:101E27000BE0FEA3E0FF900093E06E7003A3E06F6A
:101E37006003021F1B90007FF0A37402F0788B7C75
:101E4700007D017B017A0079817E007F061211BE39
:101E570078817C007D017B017A06794C7E007F06C4
:101E67001211BE78717C007D017B017A06794C7E68
:101E7700007F061211BE786B7C007D017B017A0022
:101E8700798B7E007F061211BE900087E0FFA3E0EA
:101E9700900091CFF0A3EFF0900089E0FFA3E090CE
:101EA7000093CFF0A3EFF0900009E0FFA3E09000CC
:101EB70087CFF0A3EFF090000BE0FFA3E09000893D
:101EC700CFF0A3EFF09000777408F0A37406F090BA
:101ED7000649E4F0A3742AF022900009E0FEA3E08B
:101EE700FF900091E0B5062CA3E0B5072790000B03
:101EF700E0FEA3E0FF900093E0B50618A3E0B50766
:101F0700137B017A0079819006AE1213A87A0079C3
:051F17008712196B2286
:1015DF00900022E0FEA3E0FF900009E05EFCA3E094
:1015EF005FFD900089E05EFEA3E05FB5052AEEB5D2
:1015FF000426900024E0FEA3E0FF90000BE05EFCC9
:10160F00A3E05FFD90008BE0FAA3E0FBEA5EFEEB48
:10161F005F6D7002EE6C602090001EE0FFA3E09003
:10162F000681CFF0A3EFF0900020E0FFA3E090063B
:10163F0083CFF0A3EFF08015900089E0FFA3E09037
:10164F000681CFF0A3EFF0A3EAF0A3EBF0E490064E
:10165F007FF090067FE0FFC394045047EF75F00BC7
:10166F00A42452F9740635F0FA7B019006AB1213DD
:10167F00A81212F0FF900681E0B5F01FA3E0B507A6
:10168F001A9006AB12139F90000212131BFF9006C5
:10169F0083E065F07003A3E06F600890067FE004BD
:1016AF00F080AF90067FE06404600302177BFE7F3B
:1016BF00067DFF7B017A00796B1213D77E007F06C0
:1016CF007D007B017A00798B1213D778717C007DB6
:1016DF00017B017A06794C7E007F061211BE78815C
:1016EF007C007D017B017A06794C7E007F0612110A
:1016FF00BE900681E0FFA3E0900091CFF0A3EFF042
:10170F00900683E0FFA3E0900093CFF0A3EFF0905B
:10171F000009E0FFA3E0900087CFF0A3EFF0900067
:10172F000BE0FFA3E0900089CFF0A3EFF090007FD4
:10173F00E4F0A304F0900079E4F0A304F0A374089C
:10174F00F0A3E4F0A37406F0A37404F09000777490
:10175F0008F0A37406F07B017A0079A190000D12B6
:10176F0013A8900649E4F0A3742AF0229006AB1256
:10177F00139FE92404F9E43AFA786B7C007D017E2B
:10178F00007F061211BE78717C007D017B017A0605
:10179F00794C7E007F061211BE9000777408F0A37B
:0B17AF00E4F090064975F00E1212DA0B
:0117BA00220C
:10286C0075CBFF75CAD975CDFF75CCD975C83075C8
:03287C009850224F
:0627C5009006AF1213A8FC
:1027CB00E4FFD2CA9006AF12139F8F82758300125B
:1027DB0011FDFE600AF5993099FDC2990F80E5C293
:0127EB00CA23
:0127EC0022CA
:0300000002232CAC
:0C232C00787FE4F6D8FD75810A02237367
:1010EE00E709F608DFFA8046E709F208DFFA803EE4
:1010FE0088828C83E709F0A3DFFA8032E309F608D1
:10110E00DFFA8078E309F208DFFA807088828C8338
:10111E00E309F0A3DFFA806489828A83E0A3F608EC
:10112E00DFFA805889828A83E0A3F208DFFA804CC6
:10113E0080D280FA80C680D4806980F2803380109D
:10114E0080A680EA809A80A880DA80E280CA803306
:10115E0089828A83ECFAE493A3C8C582C8CCC5837E
:10116E00CCF0A3C8C582C8CCC583CCDFE9DEE7804E
:10117E000D89828A83E493A3F608DFF9ECFAA9F0CD
:10118E00EDFB2289828A83ECFAE0A3C8C582C8CC23
:10119E00C583CCF0A3C8C582C8CCC583CCDFEADE3C
:1011AE00E880DB89828A83E493A3F208DFF980CC9E
:1011BE0088F0EF60010E4E60C388F0ED2402B40497
:1011CE000050B9F582EB2402B4040050AF2323453E
:0611DE00822390113E7314
:1011E400BB010689828A83E0225002E722BBFE0209
:0911F400E32289828A83E493223C
:1011FD00BB010CE58229F582E5833AF583E02250A7
:10120D0006E92582F8E622BBFE06E92582F8E222F0
:0D121D00E58229F582E5833AF583E493220A
:10122A00BB0111F8E58229F582E5833AF583E0C826
:10123A0028F0E8225009C58229F8C58226C622BBB1
:10124A00FE0DC58229F8E2C5822582F2E58222EAEC
:07125A002583F583E99322CF
:10126100BB010FF8E58229F582E5833AF583E02891
:10127100F0225009C58229F8E58226F622BBFE0933
:10128100C58229F8E22582F222F8EA2583F583E96D
:031291009328227D
:10129400BB010689828A83F0225002F722BBFE0139
:0212A400F32233
:1012A600F8BB010DE58229F582E5833AF583E8F07E
:1012B600225006E92582C8F622BBFE05E92582C82A
:0212C600F22212
:1012C800EF8DF0A4A8F0CF8CF0A428CE8DF0A42E3A
:0212D800FE22F4
:1012DA00C5F0F8A3E028F0C5F0F8E582158270029F
:0612EA001583E038F0223C
:1012F000BB010A89828A83E0F5F0A3E022500687C9
:10130000F009E71922BBFE07E3F5F009E31922898A
:0B131000828A83E493F5F074019322BD
:10131B00BB0110E58229F582E5833AF583E0F5F010
:10132B00A3E0225009E92582F886F008E622BBFEED
:10133B000AE92582F8E2F5F008E222E5832AF58333
:08134B00E993F5F0A3E99322F8
:10135300BB010A89828A83F0E5F0A3F0225006F7E5
:0F13630009A7F01922BBFE06F3E5F009F31922E2
:10137200F8BB0111E58229F582E5833AF583E8F0AD
:10138200E5F0A3F0225009E92582C8F608A6F0226A
:0D139200BBFE09E92582C8F2E5F008F22251
:09139F00E0FBA3E0FAA3E0F9224F
:0913A800EBF0A3EAF0A3E9F02246
:1013B100D083D082F8E4937012740193700DA3A3CB
:1013C10093F8740193F5828883E4737402936860DF
:0613D100EFA3A3A380DFDF
:1013D700EF4E6012EF60010EEDBB010B89828A832D
:1013E700F0A3DFFCDEFA2289F05007F709DFFCA93A
:0C13F700F022BBFEFCF309DFFCA9F02291
:10233800021C7CE493A3F8E493A34003F68001F223
:1023480008DFF48029E493A3F85407240CC8C333A6
:10235800C4540F4420C8834004F456800146F6DF75
:10236800E4800B0102040810204080902811E47ECC
:10237800019360BCA3FF543F30E509541FFEE4936A
:10238800A360010ECF54C025E060A840B8E493A331
:10239800FAE493A3F8E493A3C8C582C8CAC583CA5C
:1023A800F0A3C8C582C8CAC583CADFE9DEE780BE14
:0128330000A4
:00000001FF
