:0320BE00017A00A4
:10202E00D297E4FFFE0FBF00010EEF64FA4E70F57B
:10203E00C297E4FEFF0FBF00010EEF64FA4E70F57B
:10204E0090D800E0F0E4FEFF0FBF00010EEF64FA3F
:03205E004E70F5CC
:01206100225C
:0D0003007F0112001090C700E0F56BE4FFD4
:1000100090C000E0FE53063BEFC4333354C04206A9
:02002000EEF000
:0100220022BB
:102094007F0112001090C1007452F090C200745479
:1020A400F090C300744CF090C4007419F090C50013
:0A20B40074BAF090C60074D8F02250
:102159007C007D64121099E4FDC3ED9FEC9E50074D
:072169000DBD00010C80F226
:01217000224C
:101BEA0012202E90C0007421F07F0A7E0012215923
:101BFA00E4FF12001090CA00E4F090CB00F090CC01
:101C0A000074E0F090CD0074E2F090C100744CF0E2
:101C1A0090C2007480F090C300744CF090C40074B9
:101C2A0040F090C70074FFF090CF00E4F090CE002F
:101C3A0074C8F07F0112001090C700744DF090C86C
:101C4A000074FFF090C900F090CA00F090CB00F049
:101C5A0090CC00F090CD00F090CE00F090CF00F044
:101C6A00122094E4FF12001090CC0074CCF090CDB6
:101C7A000074E0F090C0007422F090C70074FFF086
:011C8A002237
:0A1B2A008B658A6689678C688D69F7
:101B3400E4FF120010C3E569943CE5689400500684
:101B440075680075693CE57A70047F0180027F0046
:101B54008F7AE57A90C90060057440F0800374467A
:101B6400F090C800E4F0E56890CB00F0E56990CA15
:101B740000F090C0007412F0E4FDFCC3ED9569EC34
:101B840095685018AB65AA66A9678D828C83120F7D
:101B9400E090D100F00DBD00010C80DFE57A90C427
:101BA4000060057440F080037446F0E56890C60058
:101BB400F0E56990C500F090C000743EF0E4FFE4E5
:101BC400FCFD90C000E030E20B0DBD00010CBC0335
:101BD400F1BDE8EE90C400E020E00A90C000743E3D
:051BE400F00FBF06DA5E
:011BE90022D9
:0614F8008B658A6689671E
:1014FE00E4FF12001090C70074FFF090C300E0F5F7
:10150E006A120003E56B7003FEFF22056AE56AD3DB
:10151E00947F4003756A4CE56A656B70030216553D
:10152E00E4FF12001090C900E56AF090C800E4F0E4
:10153E0090CB00F090CA007412F090C000740AF0C4
:10154E00E4FF90D100E0AB65AA66A9678F82758330
:10155E00001210770FBF12EAAB65AA66A96790005A
:10156E0003120FE0FE900002120FE07C002400FF39
:10157E00EC3ECF24FCF569EF34FFF568120FC7304F
:10158E00E01D900001120FE0FFD3947F5011EFC3C6
:10159E00944C400B900003120FE0D39406401312AC
:1015AE000003E56B14F56AC3944C5003756A7F0211
:1015BE00164D900010120FE0FE900011120FE07CFD
:1015CE00002400FFEC3EFEEF7003EE6408600AEFAD
:1015DE0064067003EE6408705990C900E56AF090D5
:1015EE00C8007404F090CB00E4F0E56990CA00F0F6
:1015FE0090C000740AF0E4FFFEC3EF9569EE9568A3
:10160E00501890D100E0AB65AA66A9678F828E83D1
:10161E001210770FBF00010E80DFE56B14F56AC361
:10162E00944C5003756A7F90C300E56AF0AE68AFC4
:10163E006922E56B14F56AC3944C5003756A7F906A
:0A164E00C300E56AF08000E4FEFF2F
:01165800226F
:04219200757B012236
:101C8B00E51930E62BE524241CFDE43523FC8D827D
:101C9B00F583E0701B750A00750B2DE52E2401FEF4
:101CAB00E433900042F0A3CEF08D828C837401F06C
:101CBB00E51930E214750A00750B2DE52E2401FE93
:101CCB00E433900042F0A3CEF0E51930E412E524A2
:101CDB00241CFFE43523FE8F82F583E0700204F0B1
:101CEB00E51930E136D3E5289409E5279400400542
:101CFB007529098003852829E4FFEFC3952950181E
:101D0B00AB10AA11A9128F82758300120FE0FE741B
:0B1D1B003B2FF8A6060F80E21221719A
:011D2600229A
:0620C1000472C0A8000734
:10165900E4F55FF5600560E5607002055FB410F5BB
:10166900E55FB427F0E4F5A8D2BAD28BC290C29153
:10167900122124121BEAB2911220E2121FF1122147
:1016890092B290D2AFD2AC7F297E091220620217A2
:101699003DE52B6408702EE57B64017028FB7A0018
:1016A90079727D397C301211CE8B628A638964E943
:1016B9004A4B6011E4F57BE524241CFFE435238FB4
:1016C90082F583E4F07B017A0079441214F88E27BD
:1016D9008F28E52845277062F55FF5609000087549
:1016E900F01DE560121170E55F75F01DA42583AF4B
:1016F90082F5238F247F02120026D3E5289400E582
:10170900279400401012137E7B017A007944AD289A
:10171900AC27121B2A0560E5607002055FC39402BD
:10172900E55F940040B60561E56164146003021643
:101739009A121FA9E4F56102169A7F007E08122108
:1017490096900050E0B5062EA3E0B50729121EA811
:101759007F01120026D3E5289400E5279400500361
:1017690002169A12137E7B017A007944AD28AC27C0
:10177900121B2A02169A7F067E08122196900050A3
:10178900E06E7003A3E06F600302169A121A18D371
:10179900E5289400E5279400500302169A7B017A04
:0D17A900007944AD28AC27121B2A02169AC5
:03002300022105B2
:10210500C0E0C0F0C083C082C0D075D000C2AF129D
:0F2115001E4CD2AFD0D0D082D083D0F0D0E032E9
:1021240075CBFF75CAD975CDFF75CCD975C8347513
:0C2134009850752B01E4F545752A022235
:082182008F993099FDC29922EA
:1021400074392569F8E66010F5993099FDC2990552
:0821500069E569D3940B40E836
:012158002264
:101E4C00309856AF99E52B24FE601624FE602824AA
:101E5C00037046EF64AA7041752B027839A607808F
:101E6C0038EFC3940C50048F45800375450C752BCB
:101E7C0004783AA6458022E52AC395455012EF64B2
:101E8C0055600D742D252AF8A607052A800B8000B5
:0B1E9C00752B08752A02E4F545C2987A
:011EA7002218
:10217100783976AAE529240208F6783D76550221B8
:01218100401D
:0820C700064752544C19BAD827
:1020E200E4F5599000047D00E55975F00BA4244DE8
:1020F200F9E4FAFBAE83AF821211A20559E559B495
:0321020001E122D6
:101FA900055AE4F559E55975F00BA4244DF9E4FAFD
:101FB900FB9000021210ECFFAEF01210C1FDE5F02B
:101FC9004EFEED4F4E601990000A120FE0FFC3E577
:101FD9005A9FC3947840097E007F047D001211A2A4
:071FE9000559E559B401BEE2
:011FF00022CE
:0618FC008B658A66896716
:10190200E4F559E55975F00BA4244DF9E4FAFBF519
:101912006BF56C896D1210C1FFAEF04E6045AB6B7A
:10192200AA6C9000021210EC45F06037AB65AA6613
:10193200A9671210C16F7003E5F06E7026AB6BAA37
:101942006CA96D9000021210ECFFAEF0AB65AA66B6
:10195200A9679000021210ECB50708E5F0B506037E
:101962000219EF0559E55964017098E4F559E559F2
:1019720075F00BA4244DF9E4FAFBF56BF56C896D57
:101982001210C145F0700EAB6BAA6C9000021210DF
:10199200EC45F060070559E559B401D2E5596401F7
:1019A2007038F546F558F559E55975F00BA4244DF4
:1019B200F9E4FAFBF56BF56C896D90000A120FE001
:1019C200FFC3E55A9FFFD3954640058F4685595878
:1019D2000559E559B401D1855859A86DAC6CAD6B68
:1019E200AB65AA66A9677E007F04120FA1E56D248C
:1019F20004F9E4356CA801FCAD6BAB68AA69A96A6D
:101A02007E007F06120FA1AB6BAA6CA96D90000A33
:051A1200E55A121077F7
:011A170022AC
:101EA80074F22528F52874FF3527F527E50C551E0B
:101EB800FEE50D551FFF90005EE0551EFCA3E055A2
:101EC8001FB50732ECB5062EE50E5520FEE50F5579
:101ED80021FF900060E05520FCA3E05521B50716CE
:101EE800ECB50612756801756900756A4A7B017A56
:071EF80000795E1218FC22C4
:101A1800C3E528942AE52794005006E4F527F5281D
:101A280022E4F527F528900058E0FEA3E0FFEE60D9
:101A380003021B29EF24FE7003021B01046003024A
:101A48001B2990006AE0650C7004A3E0650D600333
:101A5800021B2990006CE0650E7004A3E0650F601E
:101A680003021B29900058F0A37402F078647C00EC
:101A78007D017B017A00795A7E007F06120FA178DA
:101A88005A7C007D017B007A0079477E007F061230
:101A98000FA1784A7C007D017B007A0079477E009F
:101AA8007F06120FA178447C007D017B017A0079C2
:101AB800647E007F06120FA1900060E0FFA3E09013
:101AC800006ACFF0A3EFF0900062E0FFA3E090007F
:101AD8006CCFF0A3EFF0900060E50CF0A3E50DF0FB
:101AE800A3E50EF0A3E50FF09000507408F0A3747E
:101AF80006F075270075282A2290006AE0B50C21A7
:101B0800A3E0B50D1CA3E0B50E17A3E0B50F127541
:101B18006801756900756A5A7B017A007960121844
:021B2800FC229D
:10137E00E50C551EFEE50D551FFF900062E0551E53
:10138E00FCA3E0551FB50722ECB5061EE50E552051
:10139E00FEE50F5521FFA3E0FCA3E0FDE5205CFA7E
:1013AE00E5215D6F7002EA6E600E851A5B851B5C2F
:1013BE00851C5D851D5E800E900062E0F55BA3E0EE
:1013CE00F55C8C5D8D5EE4F559E55975F00BA42442
:1013DE004DF9E4FAFBF565F56689671210C1B55C47
:1013EE0019E55BB5F014AB65AA669000021210EC1D
:1013FE00655E7004E55D65F060070559E559B40159
:10140E00C8E559640160030214B8FE7F067DFF7BB8
:10141E00017A0079441211A27E007F067D007B01C5
:10142E007A0079641211A2784A7C007D017B007AE1
:10143E000079477E007F06120FA1785A7C007D014D
:10144E007B007A0079477E007F06120FA190006A1A
:10145E00E55BF0A3E55CF0A3E55DF0A3E55EF0903F
:10146E000060E50CF0A3E50DF0A3E50EF0A3E50F8B
:10147E00F0900058E4F0A304F0900052E4F0A304BE
:10148E00F0A37408F0A3E4F0A37406F0A37404F0C0
:10149E009000507408F0A37406F0751001751100D9
:1014AE0075127A75270075282A22AB65E567240424
:1014BE00F9E43566FA78447C007D017E007F0612E1
:1014CE000FA1784A7C007D017B007A0079477E006F
:1014DE007F06120FA19000507408F0A3E4F0740E72
:0914EE002528F528E43527F5272F
:0114F70022D2
:101EFF008C698D6A900003120FE0256AF5799000C6
:101F0F0002120FE0FDE5692DF578900001120FE048
:101F1F00F577120FC7F576E569FFAD78C3ED9FE44E
:101F2F00940050080577E57770020576AD79C3ED1B
:101F3F00956AE49400500E0578E57870080577E50A
:061F4F0077700205762206
:061D27007B017D147C002D
:061D2D008B6D8A6E896FC8
:101D3300E4F570F571D3ED9401EC9400403BAB6D89
:101D4300AA6EA96F1210C1FFAEF02571F571EE35C1
:101D530070F570C3E5719FE5709E50080571E571DC
:101D6300700205707402256FF56FE4356EF56E74BD
:101D7300FE2DFD74FF3CFC80BCED64014C7039AB5F
:101D83006DAA6EA96F120FC77F00FE122196EF2571
:101D930071F571EE3570F570AB6DAA6EA96F120F08
:101DA300C77F00FE122196C3E5719FE5709E500820
:0C1DB3000571E57170020570AE70AF7133
:011DBF002201
:08218A007A007952121D272290
:1017B6007A007966121D278E698F6AAB10AA11A965
:1017C60012900054E0FEA3E07C002400FFEC3ECF24
:1017D60024D8FDEF34FFFC121D2D8E6B8F6CE56A4D
:1017E600256CFFF56CE569356BFEF56BC3EF956A05
:1017F600EE95695008056CE56C7002056B90005E0D
:10180600E0FEA3E0FF256CFDF56CEE356BFCF56B99
:10181600D3EF9DEE9C4008056CE56C7002056B905D
:101826000060E0FEA3E0FF256CFDF56CEE356BFC79
:10183600F56BD3EF9DEE9C4008056CE56C700205D8
:101846006B900062E0FEA3E0FF256CFDF56CEE35C3
:101856006BFCF56BD3EF9DEE9C4008056CE56C7058
:1018660002056B900064E0FEA3E0FF256CFDF56CBD
:10187600EE356BFCF56BD3EF9DEE9C4008056CE5F1
:101886006C7002056B7F067E00122196EF256CFDBB
:10189600F56CEE356BFCF56BC004C0057F067E006B
:1018A600122196D005D004C3ED9FEC9E5008056C1E
:1018B600E56C7002056B900054E0FEA3E07C00240A
:1018C60000FFEC3ECF24ECCF34FFFE1221968E694A
:1018D6008F6AE56A256CFFF56CE569356BFEF56B7D
:1018E600C3EF956AEE95695008056CE56C700205C4
:0518F6006BAE6BAF6C4E
:0118FB0022CA
:1020CF00040CC0A80004041AC0A80001041EFFFFDE
:0220DF00FF0000
:101FF100E4F525E52525E02400F582E43400F583A8
:10200100E4F0A3F00525E525B401E8E4F525E5258F
:1020110075F01DA42421F582E43400F583E4F00574
:0D20210025E525B402E875080475090022C4
:0A11CE008B658A6689678C688D695D
:1011D8000509E50970020508C3E508947D40067510
:1011E8000810750900E4F525E525C39402503DE58E
:1011F8002575F01DA42408F9740035F0FA7B018BDD
:101208006AF56B896C900019120FE0601BAF09AE8C
:1012180008122196AB6AAA6BA96C9000041210EC14
:101228006F7003EE65F060A8052580BC756A0075CF
:101238006B00756C00E4F525E52575F01DA4240800
:10124800F9740035F0FA7B018B6DF56E896F9000AB
:1012580019120FE0FF7009856D6A8A6B896C803AF4
:10126800EF6407702EE56C456B601FAB6DAA6EA925
:101278006F90001A120FE0FFE524241AF582E43576
:1012880023F583E0FEEFD39E4009856D6A856E6B7A
:10129800856F6C0525E525B4029EE56C456B7004E9
:1012A800FBFAF922AB6AAA6BA96C900019740212B6
:1012B8001077900004E090000C121077900005E081
:1012C80090000D121077900006E090000E12107733
:1012D800900007E090000F121077900012740575C7
:1012E800F0A6121143900014740575F0A61211436C
:1012F800900010E475F00112114390001BE41210E5
:101308007790001A74011210779000187403121065
:1013180077900016E4121077900017741012107767
:10132800AF09AE08122196AB6AAA6BA96C900004AB
:10133800EE8FF0121143900006E5688569F01211EE
:1013480043AB65AA66A9671210C1FFAB6AAA6BA96D
:101358006CE5F08FF0121124AB65AA66A9679000BE
:10136800021210ECFFAB6AAA6BA96C900002E5F0C0
:051378008FF01211438B
:01137D00224D
:10206200E4F525E52525E02400F582E43400F58336
:10207200E0FCA3E04C7013E52525E02400F582E4A2
:102082003400F583EEF0A3EFF0220525E525B40137
:02209200D22258
:071F5500431902AF28AE277B
:101F5C00AD07AC06E5242408FFE43523FAA9077B7A
:101F6C0001121EFFE5242408F582E43523F583E5F0
:101F7C0076F0E5242409F582E43523F583E577F042
:101F8C00E524240AF582E43523F583E578F0E5248D
:0D1F9C00240BF582E43523F583E579F0226E
:100026007565018523668524677510017511007550
:10003600127AEF64026003020191900007E004F077
:100046007016900006E004F0700E900005E004F0D3
:100056007006900004E004F0E4F527F528AB65AAE5
:1000660066A967900019120FE0FF64076004EFB4F9
:10007600052190001A740112104490001A120FE024
:1000860064786003020ECBAB65AA66A96790001977
:10009600020D89AB65AA66A967900019120FE07078
:1000A60003020ECB9000101210EC45F07003020113
:1000B6006C90001A74FF12100D6003020ECB9000B4
:1000C6001B120FE0FF64086013900019120FE0FE88
:1000D60064026004EEB40114EFB40310900019E456
:1000E600121077751980121C8B020B73AB65AA660A
:1000F600A96790001B120FE0FFD3940440067E040C
:100106007F0480007403A807088002C333D8FC90DC
:10011600001A12107790001B7401121044900019F7
:10012600120FE0540F1470030206A524FE60231478
:100136007003020A7724FE7003020A7724FE700316
:10014600020A7724066003020ECBE4900073F002E5
:1001560006ABE4F527F528900042F0A3F0751904E4
:10016600121C8B020C40AB65AA66A9679000191297
:100176000FE0540F64036003020ECBF527F52890B9
:100186000042F0A3F0751908020B58900052E06483
:10019600456003020ECBE527FF900054E06F700127
:1001A600E46008E0AD28F527EDF528AF2890005566
:1001B600E06F7001E4600AAE27E0FDEEF527EDF58D
:1001C60028900058E0543F6003020ECBA3E0600382
:1001D600020ECB900062E0650C7004A3E0650D6032
:1001E60003020ECB900064E0650E7004A3E0650F79
:1001F6006003020ECB12218AEFF47002EEF4600364
:10020600020ECB90005BE06406700302029790003A
:100216005BE064016003020ECB900066E064086058
:1002260003020ECBE4900066F0C3900069E094FFF1
:10023600900068E094F74007740875F00180089014
:100246000068740875F0001210AB900062E0F517B4
:10025600A3E0F51890005EE0FFA3E0900062CFF007
:10026600A3EFF090005EE517F0A3E518F0900064A8
:10027600E0F517A3E0F518900060E0FFA3E090001A
:1002860064CFF0A3EFF0900060E517F0A3E518F057
:10029600221217B6EFF47002EEF46003020ECB756D
:1002A6006501756600756708C3900042E56795822B
:1002B600E56695835069AB65AA66A9679000191231
:1002C6000FE0604E9000041210ECFF900068E065AD
:1002D600F07003A3E06F703A9000061210ECFF90E6
:1002E6000066E0B5F02CA3E0B507271210C1FF9019
:1002F600005EE0B5F01CA3E0B507179000021210EF
:10030600ECFF900060E065F07003A3E06F700302FD
:1003160006D2741D2567F567E43566F56680899013
:100326000073E0543FFFBF0231900068E0F517A369
:10033600E0F518E4F525E52525E02400F582E4340A
:1003460000F583E0FEA3E065187003EE6517700301
:100356000204520525E525B401DC900073E030E285
:1003660003020ECB9000737414F0752700752828CD
:100376009000727450F090006DE0F525900071E0E9
:1003860090006DF0900071E525F090006CE0F52589
:10039600900070E090006CF0900070E525F0900001
:1003A6006BE0F52590006FE090006BF090006FE534
:1003B60025F090006AE0F52590006EE090006AF066
:1003C60090006EE525F0900071E004F07016900044
:1003D60070E004F0700E90006FE004F0700690007C
:1003E6006EE004F0900066E0F517A3E0F518A3E0D0
:1003F600FFA3E0900066CFF0A3EFF0A3E517F0A30C
:10040600E518F0900062E0F517A3E0F51890005E9D
:10041600E0FFA3E0900062CFF0A3EFF090005EE56E
:1004260017F0A3E518F0900064E0F517A3E0F518BF
:10043600900060E0FFA3E0900064CFF0A3EFF0909F
:100446000060E517F0A3E518F0020E6A7565007501
:100456006600756700E4F525E52575F01DA42421E1
:10046600F582E43400F583E07016E52575F01DA4E9
:100476002408F9740035F0756501F5668967805CB6
:10048600E52575F01DA42421F582E43400F583E00A
:100496006407703DAB65AA66A967AE02AF01EF4E71
:1004A600601B90001A120FE0FFE52575F01DA424CD
:1004B60022F582E43400F583E0D39F4014E52575E8
:1004C600F01DA42408F9740035F0756501F56689F8
:1004D600670525E5256402600302045EE567456657
:1004E6007003020ECBAB65AA66A967AE02AF018E9A
:1004F600238F2490001A7403121077900018740347
:10050600121077900016E4121077900017740412F8
:10051600107790001BE4121077900068E0FFA3E0CC
:10052600900004CF8FF0121143900066E0FFA3E025
:10053600900006CF8FF012114390005EE0FFA3E01B
:10054600CF8FF0121124900060E0FFA3E0AB65AA04
:1005560066A967900002CF8FF012114390001974BC
:1005660001121077900004E090000C1210779000B2
:1005760005E090000D121077900006E090000E1234
:100586001077900007E090000F121077900010E4AB
:1005960075F00112114390006DE090000B12107778
:1005A60090006CE090000A12107790006BE09000CB
:1005B6000912107790006AE09000081210777F0108
:1005C6007E00121F5C900072E054F0D394505003EA
:1005D6000206A5E4F525900072E0C4540F24FBFF43
:1005E600E434FFFEEF7802C333CE33CED8F9FFC32F
:1005F600E5259FEE6480F874809840030206A57492
:100606007A2525F582E43400F583E0F522700302AD
:1006160006A5E522B40104052580BBE52264027027
:100626005D747B2525F582E43400F583E06404706F
:100636004D747C2525F582E43400F583E0FE747D57
:100646002525F582E43400F583E0FDEEF517EDF59A
:1006560018D394A6E517940540067E057FA6800468
:10066600AE17AF18AB65AA66A967900012EE8FF0B9
:10067600121143900014EE8FF01211438021747B07
:100686002525F582E43400F583E06013747B252587
:10069600F582E43400F583E02525F5250205DC9096
:1006A60000737410F0900073E04402F090007A74C6
:1006B60002F0A37404F0A304F0A374A6F075270057
:1006C60075282C9000727460F0020DA1AB65AA66C5
:1006D600A967AE02AF018E238F24E4F5199000734B
:1006E600E030E20D900019E4121077751920020C23
:1006F600B0900072E0C4540F25E025E0F525FFC355
:10070600E5289FCFE5279400CF24ECF528EF34FFAA
:10071600F527D3E5289400E5279400404AAB65AA5F
:1007260066A967900008120FE0FF90006AE06F600C
:1007360003020D8F900009120FE0FF90006BE06F2F
:100746006003020D8F90000A120FE0FF90006CE02C
:100756006F6003020D8F90000B120FE0FF90006D8B
:10076600E06F6003020D8F900073E020E40302083F
:1007760073AB65AA66A9679000101210ECFDACF089
:100786004C7003020873E9240CF9E43AFA121EFFCE
:1007960090006EE065766003020873A3E0657760FB
:1007A60003020873A3E065786003020873A3E0659B
:1007B600796003020873AB65AA66A96790000CE529
:1007C6007612107790000DE57712107790000EE5FF
:1007D6007812107790000FE57912107790001B12AF
:0407E6000FE070743C
:1007EA00AB65AA66A96790001A120FE0FF9000187D
:1007FA00120FE0C39FF568900016120FE01313134F
:10080A00541FFFC3E5689FF568900016121044C391
:10081A00E568648094805006E568F404F568AB6581
:10082A00AA66A967900017120FE01313543FFFC37B
:10083A00E5689FF568900017121044900016120F91
:10084A00E0131313541FFF900017120FE02F9000AC
:04085A0018121077E9
:10085E00751901AB65AA66A967900018120FE09092
:10086E00001A121077AB65AA66A967900019120FCD
:10087E00E0540F12117C08A00108D4020A1E030CCA
:10088E00B6040D26050D6F060D8F070C9808000097
:10089E000ECBE51920E003020ECB90001974031263
:1008AE001077751940900010E4F5F0121143D3E55E
:1008BE00289400E52794004003121F55E49000424F
:1008CE00F0A3F0020B58E51920E00302036090003C
:1008DE0073E064126003020360900072E054F0D380
:1008EE00945050030209C1E4F525900072E0C454FF
:1008FE000F24FBFFE434FFFEEF7802C333CE33CE7A
:10090E00D8F9FFC3E5259FEE6480F8748098400304
:10091E000209C1747A2525F582E43400F583E0F5E9
:10092E002270030209C1E522B40104052580BBE54E
:10093E00226402705D747B2525F582E43400F58314
:10094E00E06404704D747C2525F582E43400F58353
:10095E00E0FE747D2525F582E43400F583E0FDEE9E
:10096E00F517EDF518D394A6E517940540067E0508
:10097E007FA68004AE17AF18AB65AA66A967900074
:10098E0012EE8FF0121143900014EE8FF0121143FD
:10099E008021747B2525F582E43400F583E0601315
:1009AE00747B2525F582E43400F583E02525F525B5
:1009BE000208F8AB65AA66A96790001974031210B5
:1009CE007790006AE090000812107790006BE0902C
:1009DE00000912107790006CE090000A12107790C8
:1009EE00006DE090000B1210777F017E00121F5CED
:1009FE00751942AB65AA66A967900010E4F5F0126E
:100A0E001143E4F527F528900042F0A3F0020B58AD
:100A1E00900073E030E055AB65AA66A967900010B0
:100A2E001210EC45F06003020ECBE5282401FFE422
:100A3E003527FE121F5C751910D3E5289400E527A3
:100A4E0094004003431902121C8BAB65AA66A9677A
:100A5E00900010E475F00112114390001974081201
:100A6E00107790001BE4121077020BA6900073E033
:100A7E0030E543900078A3E0900003F0E0D3952892
:100A8E00E495274004AF28EFF0900003E0FF7E00CE
:100A9E00121F5C900003E0FFC3E5289FF528E527B1
:100AAE009400F527851113851214E02512F512E432
:100ABE003511F5118029E4900003F0900078E0FEE6
:100ACE00A3E0FDED2512F512EE3511F5119000782B
:100ADE00E0FEEDFFC3E5289FF528E5279EF527D319
:100AEE00E5289400E52794004012AB65AA66A96735
:100AFE00900019120FE020E403121F55900074E0CD
:100B0E00FEA3E07C002400F518EC3EF517AB65AAB9
:100B1E0066A9679000141210ECFFAEF0D3E5189F93
:100B2E00E5179E5006E518451770048E178F18901E
:100B3E000012E5178518F0121143E51954037003DE
:100B4E00020ECBE4900042F0A3F0121C8BE519309C
:100B5E00E51CE4900042F0A3F0AB65AA66A967908D
:100B6E0000191210779000737414F0020D95E519A8
:100B7E0030E42EE4900042F0A3F0AB65AA66A967BC
:100B8E0090001075F00112114390001974041210A8
:100B9E007790001BE41210779000737411F0020D21
:100BAE0095D3900043E09400900042E0940040669C
:100BBE00E51930E00FAB65AA66A967900010E4F561
:100BCE00F0121143AB65AA66A9679000101210ECE3
:100BDE0045F0702A9000121210ECFFAEF0D3900088
:100BEE0043E09F900042E09E4005EEF0A3EFF090B0
:100BFE000042E0FFA3E0900010CF8FF08024AB65A1
:100C0E00AA66A9679000101210ECFF900042E5F062
:100C1E00F0A3EFF0800FAB65AA66A967900010E411
:100C2E00F5F0121143AB65AA66A96790001BE4129A
:100C3E001077751001850A11850B12D3900043E0D1
:100C4E009400900042E094004029AB65AA66A96723
:100C5E009000101210ECFFAEF0D39400EE94004012
:100C6E0012EF2428F528E43EF5279000737418F04F
:100C7E00020D9BE51920E103020ECB7527007528A6
:100C8E00289000737410F0020D9BE51920E003020A
:100C9E000ECBAB65AA66A967900019E412107775A2
:100CAE001910121C8B020ECBD3E5289400E5279465
:100CBE00004003121F58900073E030E02CE519AB92
:100CCE0065AA66A96790001930E0177407121077AD
:100CDE0090001AE4121077900010E4F5F012114310
:100CEE00806074061210778059E51930E01AAB65F2
:100CFE00AA66A9679000197405121077900010E487
:100D0E00F5F0121143020ECBD3E5289400E527949B
:100D1E00005003020ECB8069D3E5289400E527949A
:100D2E00004003121F58900073E030E024AB65AA18
:100D3E0066A967900019740712107790001AE412D2
:100D4E0010777F017E00121F5C751910121C8B80AC
:100D5E0030D3E5289400E52794005003020ECB8093
:100D6E0020E51920E003020ECBAB65AA66A96790B9
:100D7E000019740712107790001AE4121077020E01
:100D8E00CB9000737410F0752700752828900072B0
:100D9E007450F0AB65AA66A967900008120FE09038
:100DAE00006EF0900009120FE090006FF090000AB4
:100DBE00120FE0900070F090000B120FE090007197
:100DCE00F090000C120FE090006AF090000D120FE0
:100DDE00E090006BF090000E120FE090006CF0901F
:100DEE00000F120FE090006DF090005B7406F09013
:100DFE0000041210ECFF900066E5F0F0A3EFF09007
:100E0E0000061210ECFF900068E5F0F0A3EFF090F2
:100E1E00005EE50CF0A3E50DF0A3E50EF0A3E50FE3
:100E2E00F01210C1FF900062E5F0F0A3EFF0900019
:100E3E00021210ECFF900064E5F0F0A3EFF09000CA
:100E4E0019120FE030E40BE4900075F0900074F08E
:100E5E00800A9000747401F0A374F4F0E5279000FA
:100E6E0054F0AF28EFA3F0E4900076F0A3F0121741
:100E7E00B6EFF4FFEEF4900076F0A3EFF090005290
:100E8E007445F0E4A3F0900059F0900058F09000F3
:100E9E005A74FFF00516E51670020515E51590005B
:100EAE0056F0E516A3F0E490005CF0A3F012218A50
:100EBE00EFF4FFEEF490005CF0A3EFF022E4F527E0
:020ECE00F52805
:010ED00022FF
:012196002226
:03000000021DC01E
:0C1DC000787FE4F6D8FD75817B021E07D9
:100ED100E709F608DFFA8046E709F208DFFA803E03
:100EE10088828C83E709F0A3DFFA8032E309F608F0
:100EF100DFFA8078E309F208DFFA807088828C8358
:100F0100E309F0A3DFFA806489828A83E0A3F6080B
:100F1100DFFA805889828A83E0A3F208DFFA804CE5
:100F210080D280FA80C680D4806980F280338010BC
:100F310080A680EA809A80A880DA80E280CA803325
:100F410089828A83ECFAE493A3C8C582C8CCC5839D
:100F5100CCF0A3C8C582C8CCC583CCDFE9DEE7806D
:100F61000D89828A83E493A3F608DFF9ECFAA9F0EC
:100F7100EDFB2289828A83ECFAE0A3C8C582C8CC42
:100F8100C583CCF0A3C8C582C8CCC583CCDFEADE5B
:100F9100E880DB89828A83E493A3F208DFF980CCBD
:100FA10088F0EF60010E4E60C388F0ED2402B404B6
:100FB1000050B9F582EB2402B4040050AF2323455D
:060FC1008223900F217352
:100FC700BB010689828A83E0225002E722BBFE0228
:090FD700E32289828A83E493225B
:100FE000BB010CE58229F582E5833AF583E02250C6
:100FF00006E92582F8E622BBFE06E92582F8E22210
:0D100000E58229F582E5833AF583E4932229
:10100D00BB0111F8E58229F582E5833AF583E0C845
:10101D0028F0E8225009C58229F8C58226C622BBD0
:10102D00FE0DC58229F8E2C5822582F2E58222EA0B
:07103D002583F583E99322EE
:10104400BB010FF8E58229F582E5833AF583E028B0
:10105400F0225009C58229F8E58226F622BBFE0952
:10106400C58229F8E22582F222F8EA2583F583E98C
:031074009328229C
:10107700F8BB010DE58229F582E5833AF583E8F0AF
:10108700225006E92582C8F622BBFE05E92582C85B
:02109700F22243
:10109900EF8DF0A4A8F0CF8CF0A428CE8DF0A42E6B
:0210A900FE2225
:1010AB00C5F0F8A3E028F0C5F0F8E58215827002D0
:0610BB001583E038F0226D
:1010C100BB010A89828A83E0F5F0A3E022500687FA
:1010D100F009E71922BBFE07E3F5F009E3192289BC
:0B10E100828A83E493F5F074019322EF
:1010EC00BB0110E58229F582E5833AF583E0F5F042
:1010FC00A3E0225009E92582F886F008E622BBFE1F
:10110C000AE92582F8E2F5F008E222E5832AF58364
:08111C00E993F5F0A3E9932229
:10112400BB010A89828A83F0E5F0A3F0225006F716
:0F11340009A7F01922BBFE06F3E5F009F3192213
:10114300F8BB0111E58229F582E5833AF583E8F0DE
:10115300E5F0A3F0225009E92582C8F608A6F0229B
:0D116300BBFE09E92582C8F2E5F008F22282
:0C117000A42582F582E5F03583F583228A
:10117C00D083D082F8E4937012740193700DA3A302
:10118C0093F8740193F5828883E473740293686016
:06119C00EFA3A3A380DF16
:1011A200EF4E6012EF60010EEDBB010B89828A8364
:1011B200F0A3DFFCDEFA2289F05007F709DFFCA971
:0C11C200F022BBFEFCF309DFFCA9F022C8
:101DCC00021659E493A3F8E493A34003F68001F2BE
:101DDC0008DFF48029E493A3F85407240CC8C33318
:101DEC00C4540F4420C8834004F456800146F6DFE7
:101DFC00E4800B01020408102040809020BEE47E99
:101E0C00019360BCA3FF543F30E509541FFEE493DB
:101E1C00A360010ECF54C025E060A840B8E493A3A2
:101E2C00FAE493A3F8E493A3C8C582C8CAC583CACD
:101E3C00F0A3C8C582C8CAC583CADFE9DEE780BE85
:0120E10000FE
:00000001FF
